:02000000ff00ff
:080002004c6174746963650030
:17000a00694345637562653220323032302e31322e32373934330071
:16002100506172743a2069434534304858314b2d545131343400fc
:1b003700446174653a2044656320313320323032332031393a33343a3339008e
:0200520000ffad
:040054007eaa997e69
:02005800510055
:02005a0001059e
:03005c00920020ef
:03005f0062014bf0
:0300620072009099
:0300650082000016
:02006800110085
:02006a00010192
:20006c00000000000000000000000000000000000000000000000000000000000000000074
:09008c000000000000000000006b
:2000950000000000000000000000000000000000000000000000000000000000000000004b
:0a00b5000000000000000000000041
:2000bf00000000000000000000000000000000000000000000000000000000000000000021
:0900df0000000000000000000018
:2000e8000000000000000000000000000000000000000000000000000000000000000000f8
:0a01080000000000000000000000ed
:200112000000000000000000000000000000000000000000000000000000000000000000cd
:09013200000000000000000000c4
:20013b000000000000000000000000000000000000000000000000000000000000000000a4
:0a015b00000000000000000000009a
:200165000000000000040000000000001000000000000040000000001000000000000040d6
:0901850000000000000100000070
:20018e00000000000000000000000000000000000000000000000000000000000000000051
:0a01ae000000000000000000000047
:2001b80000000000000c00000000000030000000000000c00000000030000000000000c03b
:0901d8000000000000030000001b
:2001e1000000000000000000000000000000000000000000000000000000000000000000fe
:0a02010000000000000000000000f3
:20020b000000000000000000000000000000000000000000000000000000000000000000d3
:09022b00000000000000000000ca
:200234000000000000000000000000000000000000000000000000000000000000000000aa
:0a02540000000000000000000000a0
:20025e00000000000000000000000000000000000000000000000000000000000000000080
:09027e0000000000000000000077
:20028700000000000000000000000000000000000000000000000000000000000000000057
:0a02a700000000000000000000004d
:2002b100000000000004000000000000100000000000004000000000100000000000004089
:0902d10000000000000100000023
:2002da00000000000000000000000000000000000000000000000000000000000000000004
:0a02fa0000000000000000000000fa
:200304000000000000000000000000000000000000000000000000000000000000000000d9
:09032400000000000000000000d0
:20032d00000020000000000000000000000000000040000000000000000000000000000050
:0a034d0000000000000000000000a6
:20035700000000000000000000000000000000000000000000000000000000000000000086
:090377000000000000000000007d
:2003800000000000000000000000000000000000000000000000000000000000000000005d
:0a03a0000000000000000000000053
:2003aa00000000000000000000000000000000000000000000000000000000000000000033
:0903ca000000000000000000002a
:2003d30000000000000000000000000000000000000000000000000000000000000000000a
:0a03f3000000000000000000000000
:2003fd000003000000000000000000000000000000000000000000000000000000000000dd
:09041d00000000000000000000d6
:200426000000000000000000000000000000000000000000000000000000000000000000b6
:0a04460000000000000000000000ac
:2004500000000000000000000000000000000000000000000000000000000000000000008c
:0904700000000000000000000083
:20047900000020000000000000000000000000000000000000000000000000000000000043
:0a0499000000000000000000000059
:2004a300000000000000000000000000000000000000000000000000000000000000000039
:0904c30000000000000000000030
:2004cc00000000000000000000000000000000000000000000000000000000000000000010
:0a04ec000000000000000000000006
:2004f6000000000000000000000000000000000000000000000000000000000000000000e6
:09051600000000000000000000dc
:20051f000000000000000000000000000000000000000000000000000000000000000000bc
:0a053f0000000000000000000000b2
:20054900000000000000000000000000000000000000000000000000000000000000000092
:0905690000000000000000000089
:20057200000000000000000000000000000000000000000000000000000000000000000069
:0a059200000000000000000000005f
:20059c0000000000000000000000000000000000000000000000000000000000000000003f
:0905bc0000000000000000000036
:2005c5000000200000000000000000000000000000000000000000000000000000000000f6
:0a05e500000000000000000000000c
:2005ef000000000000000000000000000000000000000000000000000000000000000000ec
:09060f00000000000000000000e2
:200618000000000000000000000000000000000000000000000000000000000000000000c2
:0a06380000000000000000000000b8
:20064200000000000000000000000000000000000000000000000000000000000000000098
:090662000000000000000000008f
:20066b0000000000000000000000000000000000000000000000000000000000000000006f
:0a068b000000000000000000000065
:20069500000300000000000000000000000000000000000000000000000000000000000042
:0906b5000000000000000000003c
:2006be0000000000000000000000000000000000000000000000000000000000000000001c
:0a06de000000000000000000000012
:2006e8000000000000000000000000000000000000000000000000000000000000000000f2
:09070800000000000000000000e8
:200711000000200000000000000000000000000000000000000000000000000000000000a8
:0a07310000000000000000000000be
:20073b0000000000000000000000000000000000000000000000000000000000000000009e
:09075b0000000000000000000095
:20076400000000000000000000000000000000000000000000000000000000000000000075
:0a078400000000000000000000006b
:20078e0000000000000000000000000000000000000000000000000000000000000000004b
:0907ae0000000000000000000042
:2007b700000000000000000000000000000000000000000000000000000000000000000022
:0a07d7000000000000000000000018
:2007e1000000000000000000000000000000000000000000000000000000000000000000f8
:09080100000000000000000000ee
:20080a000000000000000000000000000000000000000000000000000000000000000000ce
:0a082a0000000000000000000000c4
:200834000000000000000000000000000000000000000000000000000000000000000000a4
:090854000000000000000000009b
:20085d0000002000000000000000000000000000004000000000000000000000000000001b
:0a087d000000000000000000000071
:20088700000000000000000000000000000000000000000000000000000000000000000051
:0908a70000000000000000000048
:2008b000000000000000000000000000000000000000000000000000000000000000000028
:0a08d000000000000000000000001e
:2008da000000000000000000000000000000000000000000000000000000000000000000fe
:0908fa00000000000000000000f5
:200903000000000000000000000000000000000000000000000000000000000000000000d4
:0a09230000000000000000000000ca
:20092d000003000000000000000000000000000000000000000000000000000000000000a7
:09094d00000000000000000000a1
:20095600000000000000000000000000000000000000000000000000000000000000000081
:0a0976000000000000000000000077
:20098000000000000000000000000000000000000000000000000000000000000000000057
:0909a0000000000000000000004e
:2009a90000002000000000000000000000000000000000000000000000000000000000000e
:0a09c9000000000000000000000024
:2009d300000000000000000000000000000000000000000000000000000000000000000004
:0909f300000000000000000000fb
:2009fc000000000000000000000000000000000000000000000000000000000000000000db
:0a0a1c0000000000000000000000d0
:200a26000000000000000000000000000000000000000000000000000000000000000000b0
:090a4600000000000000000000a7
:200a4f00000000000000000000000000000000000000000000000000000000000000000087
:0a0a6f00000000000000000000007d
:200a790000000000000000000000000000000000000000000000000000000000000000005d
:090a990000000000000000000054
:200aa200000000000000000000000000000000000000000000000000000000000000000034
:0a0ac200000000000000000000002a
:200acc0000000000000000000000000000000000000000000000000000000000000000000a
:090aec0000000000000000000001
:200af5000000200000000000000000000000000000000000000000000000000000000000c1
:0a0b150000000000000000000000d6
:200b1f000000000000000000000000000000000000000000000000000000000000000000b6
:090b3f00000000000000000000ad
:200b480000000000000000000000000000000000000000000000000000000000000000008d
:0a0b68000000000000000000000083
:200b7200000000000000000000000000000000000000000000000000000000000000000063
:090b92000000000000000000005a
:200b9b0000000000000000000000000000000000000000000000000000000000000000003a
:0a0bbb000000000000000000000030
:200bc50000030000000000000000000000000000000000000000000000000000000000000d
:090be50000000000000000000007
:200bee000000000000000000000000000000000000000000000000000000000000000000e7
:0a0c0e0000000000000000000000dc
:200c18000000000000000000000000000000000000000000000000000000000000000000bc
:090c3800000000000000000000b3
:200c4100000020000000000000000000000000000000000000000000000000000000000073
:0a0c61000000000000000000000089
:200c6b00000000000000000000000000000000000000000000000000000000000000000069
:090c8b0000000000000000000060
:200c9400000000000000000000000000000000000000000000000000000000000000000040
:0a0cb4000000000000000000000036
:200cbe00000000000000000000000000000000000000000000000000000000000000000016
:090cde000000000000000000000d
:200ce7000000000000000000000000000000000000000000000000000000000000000000ed
:0a0d070000000000000000000000e2
:200d11000000000000000000000000000000000000000000000000000000000000000000c2
:090d3100000000000000000000b9
:200d3a00000000000000000000000000000000000000000000000000000000000000000099
:0a0d5a00000000000000000000008f
:200d640000000000000000000000000000000000000000000000000000000000000000006f
:090d840000000000000000000066
:200d8d000000200000000000000000000000000000400000000000000000000000000000e6
:0a0dad00000000000000000000003c
:200db70000000000000000000000000000000000000000000000000000000000000000001c
:090dd70000000000000000000013
:200de0000000000000000000000000000000000000000000000000000000000000000000f3
:0a0e000000000000000000000000e8
:200e0a000000000000000000000000000000000000000000000000000000000000000000c8
:090e2a00000000000000000000bf
:200e330000000000000000000000000000000000000000000000000000000000000000009f
:0a0e53000000000000000000000095
:200e5d00000300000000000000000000000000000000000000000000000000000000000072
:090e7d000000000000000000006c
:200e860000000000000000000000000000000000000000000000000000000000000000004c
:0a0ea6000000000000000000000042
:200eb000000000000000000000000000000000000000000000000000000000000000000022
:090ed00000000000000000000019
:200ed9000000200000000000000000000000000000000000000000000000000000000000d9
:0a0ef90000000000000000000000ef
:200f03000000000000000000000000000000000000000000000000000000000000000000ce
:090f2300000000000000000000c5
:200f2c000000000000000000000000000000000000000000000000000000000000000000a5
:0a0f4c00000000000000000000009b
:200f560000000000000000000000000000000000000000000000000000000000000000007b
:090f760000000000000000000072
:200f7f00000000000000000000000000000000000000000000000000000000000000000052
:0a0f9f000000000000000000000048
:200fa900000000000000000000000000000000000000000000000000000000000000000028
:090fc9000000000000000000001f
:200fd2000000000000000000000000000000000000000000000000000000000000000000ff
:0a0ff20000000000000000000000f5
:200ffc000000000000000000000000000000000000000000000000000000000000000000d5
:09101c00000000000000000000cb
:2010250000002000000000000000000000000000000000000000000000000000000000008b
:0a10450000000000000000000000a1
:20104f00000000000000000000000000000000000000000000000000000000000000000081
:09106f0000000000000000000078
:20107800000000000000000000000000000000000000000000000000000000000000000058
:0a109800000000000000000000004e
:2010a20000000000000000000000000000000000000000000000000000000000000000002e
:0910c20000000000000000000025
:2010cb00000000000000000000000000000000000000000000000000000000000000000005
:0a10eb0000000000000000000000fb
:2010f5000003000000000000000000000000000000000000000000000000000000000000d8
:09111500000000000000000000d1
:20111e000000000000000000000000000000000000000000000000000000000000000000b1
:0a113e0000000000000000000000a7
:20114800000000000000000000000000000000000000000000000000000000000000000087
:091168000000000000000000007e
:2011710000002000000000000000000000000000000000000000000000000000000000003e
:0a1191000000000000000000000054
:20119b00000000000000000000000000000000000000000000000000000000000000000034
:0911bb000000000000000000002b
:2011c40000000000000000000000000000000000000000000000000000000000000000000b
:0a11e4000000000000000000000001
:2011ee000000000000000000000000000000000000000000000000000000000000000000e1
:09120e00000000000000000000d7
:201217000000000000000000000000000000000000000000000000000000000000000000b7
:0a12370000000000000000000000ad
:2012410000000000000000000000000000000000000000000000000000000000000000008d
:0912610000000000000000000084
:20126a00000000000000000000000000000000000000000000000000000000000000000064
:0a128a00000000000000000000005a
:2012940000000000000000000000000000000000000000000000000000000000000000003a
:0912b40000000000000000000031
:2012bd000000200000000000000000000000000000400000000000000000000000000000b1
:0a12dd000000000000000000000007
:2012e7000000000000000000000000000000000000000000000000000000000000000000e7
:09130700000000000000000000dd
:201310000000000000000000000000000000000000000000000000000000000000000000bd
:0a13300000000000000000000000b3
:20133a00000000000000000000000000000000000000000000000000000000000000000093
:09135a000000000000000000008a
:2013630000000000000000000000000000000000000000000000000000000000000000006a
:0a1383000000000000000000000060
:20138d0000030000000000000000000000000000000000000000000000000000000000003d
:0913ad0000000000000000000037
:2013b600000000000000000000000000000000000000000000000000000000000000000017
:0a13d600000000000000000000000d
:2013e0000000000000000000000000000000000000000000000000000000000000000000ed
:09140000000000000000000000e3
:201409000000200000000000000000000000000000000000000000000000000000000000a3
:0a14290000000000000000000000b9
:20143300000000000000000000000000000000000000000000000000000000000000000099
:0914530000000000000000000090
:20145c00000000000000000000000000000000000000000000000000000000000000000070
:0a147c000000000000000000000066
:20148600000000000000000000000000000000000000000000000000000000000000000046
:0914a6000000000000000000003d
:2014af0000000000000000000000000000000000000000000000000000000000000000001d
:0a14cf000000000000000000000013
:2014d9000000000000000000000000000000000000000000000000000000000000000000f3
:0914f900000000000000000000ea
:201502000000000000000000000000000000000000000000000000000000000000000000c9
:0a15220000000000000000000000bf
:20152c0000000000000000000000000000000000000000000000000000000000000000009f
:09154c0000000000000000000096
:20155500000020000000000000000000000000000000000000000000000000000000000056
:0a157500000000000000000000006c
:20157f0000000000000000000000000000000000000000000000000000000000000000004c
:09159f0000000000000000000043
:2015a800000000000000000000000000000000000000000000000000000000000000000023
:0a15c8000000000000000000000019
:2015d2000000000000000000000000000000000000000000000000000000000000000000f9
:0915f200000000000000000000f0
:2015fb000000000000000000000000000000000000000000000000000000000000000000d0
:0a161b0000000000000000000000c5
:201625000003000000000000000000000000000000000000000000000000000000000000a2
:091645000000000000000000009c
:20164e0000000000000000000000000000000000000000000000000000000000000000007c
:0a166e000000000000000000000072
:20167800000000000000000000000000000000000000000000000000000000000000000052
:0916980000000000000000000049
:2016a100000020000000000000000000000000000000000000000000000000000000000009
:0a16c100000000000000000000001f
:2016cb000000000000000000000000000000000000000000000000000000000000000000ff
:0916eb00000000000000000000f6
:2016f4000000000000000000000000000000000000000000000000000000000000000000d6
:0a17140000000000000000000000cb
:20171e000000000000000000000000000000000000000000000000000000000000000000ab
:09173e0000000000800000000022
:20174700000000000000000000000000000000000000000000000000000000000000000082
:0a1767000000000000000000000078
:20177100000000000000000000000000000000000000000000000000000000000000000058
:091791000000000000000000004f
:20179a0000000000000000000000000000000000000000000000000000000000000000002f
:0a17ba000000000000000000000025
:0217c400000023
:0217c60011010f
:0217c80001011d
:2017ca000000000000000000000000000000000000000000000000000000000000000000ff
:0917ea00000000000000000000f6
:2017f3000000000000000000000000000000000000000000000000000000000000000000d6
:0a18130000000000000000000000cb
:20181d000000000000000000000000000000000000000000000000000000000000000000ab
:09183d00000000000000000000a2
:20184600000000000000000000000000000000000000000000000000000000000000000082
:0a1866000000000000000000000078
:20187000000000000000000000000000000000000000000000000000000000000000000058
:091890000000000000000000004f
:2018990000000000000000000000000000000000000000000000000000000000000000002f
:0a18b9000000000000000000000025
:2018c300000000000004000000000000100000000000004000000000100000000000004061
:0918e300000000000001000000fb
:2018ec000000000000000000000000000000000000000000000000000000000000000000dc
:0a190c0000000000000000000000d1
:2019160000000000000c00000000000030000000000000c00000000030000000000000c0c5
:09193600000000000003000000a5
:20193f00000000000000000000000000000000000000000000000000000000000000000088
:0a195f00000000000000000000007e
:2019690000000000000000000000000000000000000000000000000000000000000000005e
:0919890000000000000000000055
:20199200000000000000000000000000000000000000000000000000000000000000000035
:0a19b200000000000000000000002b
:2019bc0000000000000000000000000000000000000000000000000000000000000000000b
:0919dc0000000000000000000002
:2019e5000000000000000000000000000000000000000000000000000000000000000000e2
:0a1a050000000000000000000000d7
:201a0f00000000000004000000000000100000000000004000000000100000000000004013
:091a2f00000000000001000000ad
:201a380000000000000000000000000000000000000000000000000000000000000000008e
:0a1a58000000000000000000000084
:201a6200000000000000000000000000000000000000000000000000000000000000000064
:091a82000000000000000000005b
:201a8b0000000000000000000000000000000000000000000000000000000000000000003b
:0a1aab000000000000000000000031
:201ab500000000000000000000000000000000000000000000000000000000000000000011
:091ad50000000000000000000008
:201ade000000000000000000000000000000000000000000000000000000000000000000e8
:0a1afe0000000000000000000000de
:201b08000000000000000000000000000000000000000000000000000000000000000000bd
:091b2800000000000000000000b4
:201b3100000000000000000000000000000000000000000000000000000000000000000094
:0a1b5100000000000000000000008a
:201b5b00000200000000000000000000000000000000000000000000000000000000000068
:091b7b0000000000000000000061
:201b8400000000000000000000000000000000000000000000000000000000000000000041
:0a1ba4000000000000000000000037
:201bae00000000000000000000000000000000000000000000000000000000000000000017
:091bce000000000000000000000e
:201bd7000000300000000000000000000000000000000000000000000000000000000000be
:0a1bf70000000000000000000000e4
:201c01000000000000000000000000000000000000000000000000000000000000000000c3
:091c2100000000000000000000ba
:201c2a0000000000000000000000000000000000000000000000000000000000000000009a
:0a1c4a000000000000000000000090
:201c5400000000000000000000000000000000000000000000000000000000000000000070
:091c740000000000000000000067
:201c7d00000000000000000000000000000000000000000000000000000000000000000047
:0a1c9d00000000000000000000003d
:201ca70000020000000000000000000000000000000000000000000000000000000000001b
:091cc70000000000000000000014
:201cd0000000000000000000000000000000000000000000000000000000000000000000f4
:0a1cf00000000000000000000000ea
:201cfa000000000000000000000000000000000000000000000000000000000000000000ca
:091d1a00000000000000000000c0
:201d23000000000000000000000000000000000000000000000000000000000000000000a0
:0a1d43000000000000000000000096
:201d4d00000000000000000000000000000000000000000000000000000000000000000076
:091d6d000000000000000000006d
:201d760000000000000000000000000000000000000000000000000000000000000000004d
:0a1d96000000000000000000000043
:201da000000000000000000000000000000000000000000000000000000000000000000023
:091dc0000000000000000000001a
:201dc9000000000000000000000000000000000000000000000000000000000000000000fa
:0a1de90000000000000000000000f0
:201df3000002000000000000000000000000000000000000000000000000000000000000ce
:091e1300000000000000000000c6
:201e1c000000000000000000000000000000000000000000000000000000000000000000a6
:0a1e3c00000000000000000000009c
:201e460000000000000000000000000000000000000000000000000000000000000000007c
:091e660000000000000000000073
:201e6f00000030000000000000000000000000000000000000000000000000000000000023
:0a1e8f000000000000000000000049
:201e9900000000000000000000000000000000000000000000000000000000000000000029
:091eb90000000000000000000020
:201ec200000000000000000000000000000000000000000000000000000000000000000000
:0a1ee20000000000000000000000f6
:201eec000000000000000000000000000000000000000000000000000000000000000000d6
:091f0c00000000000000000000cc
:201f15000000000000000000000000000000000000000000000000000000000000000000ac
:0a1f350000000000000000000000a2
:201f3f0000020000000000000000000000000000040000000000000000000000000000007c
:091f5f0000000000000000000079
:201f6800000000000000000000000000000000000000000000000000000000000000000059
:0a1f8800000000000000000000004f
:201f92000000000000000000000000000000000000000000000000000000000003800000ac
:091fb2000000000000427dd10096
:201fbb00000000000000000000000000000000000000000000000000000000000000000006
:0a1fdb000000000000022dde74106b
:201fe5000000000000000000000000000000000000000000000000000000000001000000db
:09200500000000000000000000d2
:20200e000000000000000000000000000000000000000000000000000000000000000000b2
:0a202e0000000000000000000000a8
:20203800000000000000000000000000000000000000000000000000000000000000000088
:092058000000000000200000005f
:2020610000000000000000000000000000000000000000000000000000000000000000005f
:0a208100000000000006000000004f
:20208b00000200000000000000000000000000000000000000000000000000000000000033
:0920ab0000000000003810c50817
:2020b40000000000000000000000000000000000000000000000000000000000028000008a
:0a20d40000000000000047ac50209f
:2020de000000000000000000000000000000000000000000000000000000000000000000e2
:0920fe0000000000023240e7007e
:20210700000030000000000000000000000000000000000000000000000000000000000088
:0a21270000000000016045aef22048
:2021310000000000000000000000000000000000000000000000000000000000000000008e
:09215100000000000003d0500062
:20215a00400000000000000000000000000000000000000000000000000000000000000025
:0a217a00000000020000218a0000ae
:2021840000000000000000000000000000000000000000000000000000000000000000003b
:0921a40000000800020000000028
:2021ad00000000000000000000000000000000000000000000000000000000000000000012
:0a21cd00000000a000678000000081
:2021d7000002000000000000000000000000000000000000000000000000000040000000a6
:0921f7000000000014400000008b
:202200000000000000000000000000000000000000000000000000000000000004000000ba
:0a22200000000080000680000000ae
:20222a00000000000000000000000000000000000000000000000000000000000000000094
:09224a000000000000015dff210d
:2022530000000000000000000000000000000000000000000000000000000000000000006b
:0a227300000000000000259fd000cd
:20227d00000000000000000000000000000000000000000000000000000000000001100030
:09229d00000000000040000000f8
:2022a60000000000000000000000000000000000000000000000000000000000000079a0ff
:0a22c600000000000002000000000c
:2022d0000000000000000000000000000000000000000000000000000000000000000000ee
:0922f00000000000167800000057
:2022f9000000000000000000000000000000000000000000000000000000000000000000c5
:0a2319000000000001c240000000b7
:20232300000200000000000000000000000000000000000000000000000000000000000098
:0923430000000100000000000090
:20234c00000000000000000000000000000000000000000000000000000000000000000071
:0a236c000000001000000000000057
:202376000000000000000000000000000000000000000000000000000000000080000000c7
:09239600000002003c3c000000c4
:20239f000000300000000000000000000000000000000000000000000000000000000000ee
:0a23bf0000000000020040000000d2
:2023c9000000000000000000000000000000000000000000000000000000000300000000f1
:0923e90000000d00006c00000072
:2023f20000000000000000000000000000000000000000000000000000000000100000e0db
:0a241200000000d02006800000004a
:20241c000000000000000000000000000000000000000000000000000000000200008076a8
:09243c003fc02800003770db00ee
:20244500000000000000000000000000000000000000000000000000000000002800100738
:0a2465003eb540a000004e8ef520a9
:20246f00000200000000000000000000000000000400000000000000000000000000000047
:09248f00000000a03c236c530086
:20249800000000000000000000000000000000000000000000000000000000002000000004
:0a24b80000000084020017d031007c
:2024c2000000000000000000000000000000000000000000000000000000000000000000fa
:0924e20000000000023c30d100b2
:2024eb00400000000000000000000000000000000000000000000000000000000000580039
:0a250b000000000000e64eed122073
:202515000000000000000000000000000000000000000000000000000000000000000000a6
:0925350000000002ac00f0e70018
:20253e0040000000000000000000000000000000000000000000000000000000000000003d
:0a255e00000000000207958ef02037
:202568000000000000000000000000000000000000000000000000000000000000008000d3
:0925880000000000003060530067
:202591000000000000000000000000000000000000000000000000000000000000007000ba
:0a25b10000000000016047e0322046
:2025bb000002000000000000000000000000000000000000000000000000000000000d00f1
:0925db00000000023c01600f0049
:2025e4000000000000000000000000000000000000000000000000000000000000000010c7
:0a2604000000000002001f8a000021
:20260e0000000000000000000000000000000000000000000000000000000000800000002c
:09262e0000000200004000000061
:20263700000030000000000000000000000000000000000000000000000000000000000053
:0a2657000000000000060000000073
:2026610000000000000000000000000000000000000000000000000000000001000009004f
:0926810000000000002b40800065
:20268a000000000000000000000000000000000000000000000000000000000030000010f0
:0a26aa000000000001602ee004a013
:2026b40000000000000000000000000000000000000000000000000000000002000300d32e
:0926d4003fc00800023830050087
:2026dd000000000000000000000000000000000000000000000000000000000028000007ae
:0a26fd00e6b501a001c34fe0500054
:202707000002000000000000000000000000000000000000000000000000000000000000b0
:09272700000000000000000000a9
:20273000000000000000000000000000000000000000000000000000000000002000000069
:0a2750000000008001e0000000001e
:20275a0000000000000000000000000000000000000000000000000000000000000000005f
:09277a0000000000000000000056
:20278300000000000000000000000000000000000000000000000000000000000000000036
:0a27a300000000000000000000002c
:2027ad0000000000000000000000000000000000000000000000000000000000000000000c
:0927cd0000000000000000000003
:2027d6000000000000000000000000000000000000000000000000000000000000000000e3
:0a27f60000000000000700000000d2
:202800000000000000000000000000000000000000000000000000000000000000000000b8
:092820000000000002200000008d
:2028290000000000000000000000000000000000000000000000000000000000000000008f
:0a2849000000000001600000000024
:20285300000200000000000000000000000000000000000000000000000000000000000063
:0928730000000000004060530069
:20287c004000000000000000000000000000000000000000000000000000000000000000fc
:0a289c000000000400038ca030309f
:2028a600000000000000000000000000000000000000000000000000000000000000000012
:0928c600000000008038f00f0052
:2028cf000000300000000000000000000000000000000000000000000000000000000000b9
:0a28ef00000000001403bdaa000061
:2028f9000000000000000000000000000000000000000000000000000000000000000000bf
:09291900000000003c02d0500057
:20292200000000000000000000000000000000000000000000000000000000000000000095
:0a29420000000000000021aa0210ae
:20294c0000000000000000000000000000000000000000000000000000000000000000006b
:09296c0000000040000000000022
:20297500000000000000000000000000000000000000000000000000000000000000000042
:0a2995000000000800000000000030
:20299f00000200000000000000000000000000000400000000000000000000000000000012
:0929bf00000000017c0000000092
:2029c8000000000000000000000000000000000000000000000000000000000000000000ef
:0a29e800000000001e0000000000c7
:2029f2000000000000000000000000000000000000000000000000000000000000000000c5
:092a120000000000143400000073
:202a1b0000000000000000000000000000000000000000000000000000000000000000009b
:0a2a3b000000000000400000000051
:202a4500000000000000000000000000000000000000400000000000000000000000000031
:092a650000000000024000000026
:202a6e00000000000000000000000000000000000000000000000000000000000000000048
:0a2a8e000000000001e2000000005b
:202a980000000000000000000000000000000000000000000000000000000000000000001e
:092ab800000000000003c0d10081
:202ac1000000000000000000000000000000000000000000000000000000000000000000f5
:0a2ae1000000000200073daf562080
:202aeb000002000000000000000000000000000000000000000000000000000000000000c9
:092b0b00000000000041e0f300ad
:202b14000000000000000000000000000000000000000000000000000000000000000000a1
:0a2b340000000000000727efb020aa
:202b3e00000000000000000000000000000000000000000000000000000000000000000077
:092b5e0000000000000150db0042
:202b670000003000000000000000000000000000000000000000000000000000000000001e
:0a2b870000000000006006ef70205f
:202b9100000000000000000000000000000000000000000000000000000000000000000024
:092bb100000000003c007ac000a5
:202bba000000000000000000000000000000000000000000000000000000000000000000fb
:0a2bda000000000000000dde5000b6
:202be4000000000000000000000000000000000000000000000000000000000000000000d1
:092c0400000008003c4000000043
:202c0d000000000000000000000000000000000000000000000000000000000000000000a7
:0a2c2d00000000a002038000000078
:202c370000020000000000000000000000000000000000000000000000000000000000007b
:092c570000000000140000000060
:202c6000000000000000000000000000000000000000000000000000000000000000000054
:0a2c800000000080000000000000ca
:202c8a0000000000000000000000000000000000000000000000000000000000000000002a
:092caa0000000100000000000020
:202cb300000000000000000000000000000000000000000000000000000000000000000001
:0a2cd30000000010000000000000e7
:202cdd00000000000000000000000000000000000000000000000000000000000000800057
:092cfd00000000000000000000ce
:202d060000000000000000000000000000000000000000000000000000000000000010009d
:0a2d260000000000000000000000a3
:202d3000000000000000000000000000000000000000000000000000000000000000000083
:092d50000000000000000000007a
:202d590000000000000000000000000000000000000000000000000000000000000000005a
:0a2d79000000000000000000000050
:202d830000020000000000000000000000000000000000000000000000000000000000002e
:092da300000000000030000000f7
:202dac000000000000000000000000000000000000000000000000000000000000001800ef
:0a2dcc0000000000000040000000bd
:202dd6000000000000000000000000000000000000000000000000000000000000000000dd
:092df600000000001c3000000088
:202dff00000030000000000000000000000000000000000000000000000000000000000084
:0a2e1f0000000000020000000000a7
:202e2900000000000000000000000000000000000000000000000000000000000000007019
:092e49002040040002000000001a
:202e520003000000000000000000000000000000000000000000000000000000000000005d
:0a2e7200010848c0016000000000e4
:202e7c000040000000000000000000000000000000000000000000000000000000000030c6
:092e9c00294008000000000000bc
:202ea500000680000000000000000000000000000000000000000000000000000000000087
:0a2ec500016800a0000000000000fa
:202ecf000002000000000000000000000000000004000000000000000000000000000000dd
:092eef0000000000000160ff0179
:202ef8000000000000000000000000000000000000000000000000000000000000000000ba
:0a2f180000000080000017af570012
:022f22000000ad
:022f2400110298
:022f26000101a7
:202f2800000000000000000000000000000000000000000000000000000000000000000089
:092f480000000000000000000080
:202f5100000000000000000000000000000000000000000000000000000000000000000060
:0a2f71000000000000000000000056
:202f7b00000000000000000000000000000000000000000000000000000000000000000036
:092f9b000000000000000000002d
:202fa40000000000000000000000000000000000000000000000000000000000000000000d
:0a2fc4000000000000000000000003
:202fce000000000000000000000000000000000000000000000000000000000000000000e3
:092fee00000000000000000000da
:202ff7000000000000000000000000000000000000000000000000000000000000000000ba
:0a30170000000000000000000000af
:203021000000000000080000000000002000000000080000000000002000000000000080bf
:0930410000000000000200000084
:20304a00000000000000000000000000000000000000000000000000000000000000000066
:0a306a00000000000000000000005c
:2030740000000000000c00000000000030000000000c00000000000030000000000000c004
:0930940000000000000300000030
:20309d00000000000000000000000000000000000000000000000000000000000000000013
:0a30bd000000000000000000000009
:2030c7000000000000000000000000000000000000000000000000000000000000000000e9
:0930e700000000000000000000e0
:2030f0000000000000000000000000000000000000000000000000000000000000000000c0
:0a31100000000000000000000000b5
:20311a00000000000000000000000000000000000000000000000000000000000000000095
:09313a000000000000000000008c
:2031430000000000000000000000000000000000000000000000000000000000000000006c
:0a3163000000000000000000000062
:20316d00000000000008000000000000200000000008000000000000200000000000008072
:09318d0000000000000200000037
:20319600000000000000000000000000000000000000000000000000000000000000000019
:0a31b600000000000000000000000f
:2031c0000000000000000000000000000000000000000000000000000000000000000000ef
:0931e000000000000000000000e6
:2031e90000002000000000000000000000000000000000000800000000000000000000009e
:0a32090000000000000000000000bb
:2032130000000000000000000000000000000000000000000000000000000000000000009b
:0932330000000000000000000092
:20323c00000000000000000000000000000000000000000000000000000000000000000072
:0a325c000000000000000000000068
:20326600000000000000000000000000000000000000000000000000000000000000000048
:093286000000000000000000003f
:20328f0000000000000000000000000000000000000000000000000000000000000000001f
:0a32af000000000000000000000015
:2032b9000003000000000000000000000000000000000000000000000000000000000000f2
:0932d900000000000000000000ec
:2032e2000000000000000000000000000000000000000000000000000000000000000000cc
:0a33020000000000000000000000c1
:20330c000000000000000000000000000000000000000000000000000000000000000000a1
:09332c0000000000000000000098
:20333500000020000000000000000000000000000000000000000000000000000000000058
:0a335500000000000000000000006e
:20335f0000000000000000000000000000000000000000000000000000000000000000004e
:09337f0000000000000000000045
:20338800000000000000000000000000000000000000000000000000000000000000000025
:0a33a800000000000000000000001b
:2033b2000000000000000000000000000000000000000000000000000000000000000000fb
:0933d200000000000000000000f2
:2033db000000000000000000000000000000000000000000000000000000000000000000d2
:0a33fb0000000000000000000000c8
:203405000000000000000000000000000000000000000000000000000000000000000000a7
:093425000000000000000000009e
:20342e0000000000000000000000000000000000000000000000000000000000000000007e
:0a344e000000000000000000000074
:20345800000000000000000000000000000000000000000000000000000000000000000054
:093478000000000000000000004b
:2034810000002000000000000000000000000000000000000000000000000000000000000b
:0a34a1000000000000000000000021
:2034ab00000000000000000000000000000000000000000000000000000000000000000001
:0934cb00000000000000000000f8
:2034d4000000000000000000000000000000000000000000000000000000000000000000d8
:0a34f40000000000000000000000ce
:2034fe000000000000000000000000000000000000000000000000000000000000000000ae
:09351e00000000000000000000a4
:20352700000000000000000000000000000000000000000000000000000000000000000084
:0a354700000000000000000000007a
:20355100000300000000000000000000000000000000000000000000000000000000000057
:0935710000000000000000000051
:20357a00000000000000000000000000000000000000000000000000000000000000000031
:0a359a000000000000000000000027
:2035a400000000000000000000000000000000000000000000000000000000000000000007
:0935c400000000000000000000fe
:2035cd000000200000000000000000000000000000000000000000000000000000000000be
:0a35ed0000000000000000000000d4
:2035f7000000000000000000000000000000000000000000000000000000000000000000b4
:09361700000000000000000000aa
:2036200000000000000000000000000000000000000000000000000000000000000000008a
:0a3640000000000000000000000080
:20364a00000000000000000000000000000000000000000000000000000000000000000060
:09366a0000000000000000000057
:20367300000000000000000000000000000000000000000000000000000000000000000037
:0a369300000000000000000000002d
:20369d0000000000000000000000000000000000000000000000000000000000000000000d
:0936bd0000000000000000000004
:2036c6000000000000000000000000000000000000000000000000000000000000000000e4
:0a36e60000000000000000000000da
:2036f0000000000000000000000000000000000000000000000000000000000000000000ba
:09371000000000000000000000b0
:20371900000020000000000000000000000000000000000008000000000000000000000068
:0a3739000000000000000000000086
:20374300000000000000000000000000000000000000000000000000000000000000000066
:093763000000000000000000005d
:20376c0000000000000000000000000000000000000000000000000000000000000000003d
:0a378c000000000000000000000033
:20379600000000000000000000000000000000000000000000000000000000000000000013
:0937b6000000000000000000000a
:2037bf000000000000000000000000000000000000000000000000000000000000000000ea
:0a37df0000000000000000000000e0
:2037e9000003000000000000000000000000000000000000000000000000000000000000bd
:09380900000000000000000000b6
:20381200000000000000000000000000000000000000000000000000000000000000000096
:0a383200000000000000000000008c
:20383c0000000000000000000000000000000000000000000000000000000000000000006c
:09385c0000000000000000000063
:20386500000020000000000000000000000000000000000000000000000000000000000023
:0a3885000000000000000000000039
:20388f00000000000000000000000000000000000000000000000000000000000000000019
:0938af0000000000000000000010
:2038b8000000000000000000000000000000000000000000000000000000000000000000f0
:0a38d80000000000000000000000e6
:2038e2000000000000000000000000000000000000000000000000000000000000000000c6
:09390200000000000000000000bc
:20390b0000000000000000000000000000000000000000000000000000000000000000009c
:0a392b000000000000000000000092
:20393500000000000000000000000000000000000000000000000000000000000000000072
:0939550000000000000000000069
:20395e00000000000000000000000000000000000000000000000000000000000000000049
:0a397e00000000000000000000003f
:2039880000000000000000000000000000000000000000000000000000000000000000001f
:0939a80000000000000000000016
:2039b1000000200000000000000000000000000000000000000000000000000000000000d6
:0a39d10000000000000000000000ec
:2039db000000000000000000000000000000000000000000000000000000000000000000cc
:0939fb00000000000000000000c3
:203a04000000000000000000000000000000000000000000000000000000000000000000a2
:0a3a24000000000000000000000098
:203a2e00000000000000000000000000000000000000000000000000000000000000000078
:093a4e000000000000000000006f
:203a570000000000000000000000000000000000000000000000000000000000000000004f
:0a3a77000000000000000000000045
:203a8100000300000000000000000000000000000000000000000000000000000000000022
:093aa1000000000000000000001c
:203aaa000000000000000000000000000000000000000000000000000000000000000000fc
:0a3aca0000000000000000000000f2
:203ad4000000000000000000000000000000000000000000000000000000000000000000d2
:093af400000000000000000000c9
:203afd00000020000000000000000000000000000000000000000000000000000000000089
:0a3b1d00000000000000000000009e
:203b270000000000000000000000000000000000000000000000000000000000000000007e
:093b470000000000000000000075
:203b5000000000000000000000000000000000000000000000000000000000000000000055
:0a3b7000000000000000000000004b
:203b7a0000000000000000000000000000000000000000000000000000000000000000002b
:093b9a0000000000000000000022
:203ba300000000000000000000000000000000000000000000000000000000000000000002
:0a3bc30000000000000000000000f8
:203bcd000000000000000000000000000000000000000000000000000000000000000000d8
:093bed00000000000000000000cf
:203bf6000000000000000000000000000000000000000000000000000000000000000000af
:0a3c160000000000000000000000a4
:203c2000000000000000000000000000000000000000000000000000000000000000000084
:093c40000000000000000000007b
:203c4900000020000000000000000000000000000000000008000000000000000000000033
:0a3c69000000000000000000000051
:203c7300000000000000000000000000000000000000000000000000000000000000000031
:093c930000000000000000000028
:203c9c00000000000000000000000000000000000000000000000000000000000000000008
:0a3cbc0000000000000000000000fe
:203cc6000000000000000000000000000000000000000000000000000000000000000000de
:093ce600000000000000000000d5
:203cef000000000000000000000000000000000000000000000000000000000000000000b5
:0a3d0f0000000000000000000000aa
:203d1900000300000000000000000000000000000000000000000000000000000000000087
:093d390000000000000000000081
:203d4200000000000000000000000000000000000000000000000000000000010000000060
:0a3d62000000000000000000001047
:203d6c00000000000000000000000000000000000000000000000000000000000000000037
:093d8c000000000000000000002e
:203d95000000200000000000000000000000000000000000000000000000000000000000ee
:0a3db5000000000000000000000004
:203dbf000000000000000000000000000000000000000000000000000000000000000000e4
:093ddf00000000000000000000db
:203de8000000000000000000000000000000000000000000000000000000000000000000bb
:0a3e080000000000000000000000b0
:203e1200000000000000000000000000000000000000000000000000000000000000000090
:093e320000000000000000000087
:203e3b00000000000000000000000000000000000000000000000000000000000000000067
:0a3e5b00000000000000000000005d
:203e650000000000000000000000000000000000000000000000000000000000000000003d
:093e850000000000000000000034
:203e8e00000000000000000000000000000000000000000000000000000000000000000014
:0a3eae00000000000000000000000a
:203eb8000000000000000000000000000000000000000000000000000000000000000000ea
:093ed800000000000000000000e1
:203ee1000000200000000000000000000000000000000000000000000000000000000000a1
:0a3f010000000000000000000000b6
:203f0b00000000000000000000000000000000000000000000000000000000000000000096
:093f2b000000000000000000008d
:203f340000000000000000000000000000000000000000000000000000000000000000006d
:0a3f54000000000000000000000063
:203f5e00000000000000000000000000000000000000000000000000000000000000000043
:093f7e000000000000000000003a
:203f870000000000000000000000000000000000000000000000000000000000000000001a
:0a3fa7000000000000000000000010
:203fb1000003000000000000000000000000000000000000000000000000000000000000ed
:093fd100000000000000000000e7
:203fda000000000000000000000000000000000000000000000000000000000000000000c7
:0a3ffa0000000000000000000000bd
:2040040000000000000000000000000000000000000000000000000000000000000000009c
:0940240000000000000000000093
:20402d00000020000000000000000000000000000000000000000000000000000000000053
:0a404d000000000000000000000069
:20405700000000000000000000000000000000000000000000000000000000000000000049
:0940770000000000000000000040
:20408000000000000000000000000000000000000000000000000000000000000000000020
:0a40a0000000000000000000000016
:2040aa000000000000000000000000000000000000000000000000000000000000000000f6
:0940ca00000000000000000000ed
:2040d3000000000000000000000000000000000000000000000000000000000000000000cd
:0a40f30000000000000000000000c3
:2040fd000000000000000000000000000000000000000000000000000000000000000000a3
:09411d0000000000000000000099
:20412600000000000000000000000000000000000000000000000000000000000000000079
:0a414600000000000000000000006f
:2041500000000000000000000000000000000000000000000000000000000000000000004f
:0941700000000000000000000046
:204179000000200000000000000000000000000000000000080000000000000000000000fe
:0a419900000000000000000000001c
:2041a3000000000000000000000000000000000000000000000000000000000000000000fc
:0941c300000000000000000000f3
:2041cc000000000000000000000000000000000000000000000000000000000000000000d3
:0a41ec0000000000000000000000c9
:2041f6000000000000000000000000000000000000000000000000000000000000000000a9
:094216000000000000000000009f
:20421f0000000000000000000000000000000000000000000000000000000000000000007f
:0a423f000000000000000000000075
:20424900000300000000000000000000000000000000000000000000000000000000000052
:094269000000000000000000004c
:2042720000000000000000000000000000000000000000000000000000000000000000002c
:0a4292000000000000000000000022
:20429c00000000000000000000000000000000000000000000000000000000000000000002
:0942bc00000000000000000000f9
:2042c5000000200000000000000000000000000000000000000000000000000000000000b9
:0a42e50000000000000000000000cf
:2042ef000000000000000000000000000000000000000000000000000000000000000000af
:09430f00000000000000000000a5
:20431800000000000000000000000000000000000000000000000000000000000000000085
:0a433800000000000000000000007b
:2043420000000000000000000000000000000000000000000000000000000000000000005b
:0943620000000000000000000052
:20436b00000000000000000000000000000000000000000000000000000000000000000032
:0a438b000000000000000000000028
:20439500000000000000000000000000000000000000000000000000000000000000000008
:0943b500000000000000000000ff
:2043be000000000000000000000000000000000000000000000000000000000000000000df
:0a43de0000000000000000000000d5
:2043e80000000000000000000000000000000000000000000000000000000004008f1b20e7
:09440800000000000000000000ab
:2044110040002000000000000000000000000000000000000000000000d000000000f9f969
:0a4431004000000000000100000040
:20443b000000000000000003400000000000000000000007000129ce800000140000000685
:09445b00000000000000981001af
:204464004000000000000000000000000000000000000000000013ff7f0000004000000027
:0a4484000007000000000f0e000406
:20448e0000000000000000000000000000000000000000000050bddfa800000c000000006e
:0944ae000400800280fd00000002
:2044b70000000000000000000000000000000000000000000000036c0d100000c000000099
:0a44d70002c000000001f00f000019
:2044e10000030000000000000000000000000c000000000000000000000b000000a536dee8
:09450100000000000000000000b1
:20450a000000000000000000000000000000000000000000000000000001e0000005f07c3f
:0a452a002000000000000000000067
:20453400000000000000000000000000000000000000000000012bdcb00000000000000ea1
:09455400000000000000700000ee
:20455d000000200000000000000000000000000000000000000003fc3a7000000000000075
:0a457d0003400000000000000000f1
:204587000000000000000000000000000000000000000008000000000800a0000000000c58
:0945a70000000000000030c0001b
:2045b0000000000000000000000000000000000000000000000000000030040000000000b7
:0a45d000034000000000009000000e
:2045da00000000000000000000000000000000000000000000000000090000000000ff5c5d
:0945fa0038000002bccb000000f7
:2046030000000000000000000000000000000000000000000000000000b800000000277048
:0a462300000000003fc2800000000c
:20462d0000000000000000000000000000000c00000000000000000000000000400273802c
:09464d007400010a145930000048
:204656000000000000000000000000000000000000000000000000000000f0000004206ac6
:0a467600c6c0000137c39000000029
:02468000000038
:02468200110322
:02468400010132
:20468600000000000000000000000000000000000000000000000000000000000000000014
:0946a6000000000000000000000b
:2046af000000000000000000000000000000000000000000000000000000000000000000eb
:0a46cf0000000000000000000000e1
:2046d9000000000000000000000000000000000000000000000000000000000000000000c1
:0946f900000000000000000000b8
:20470200000000000000000000000000000000000000000000000000000000000000000097
:0a472200000000000000000000008d
:20472c0000000000000000000000000000000000000000000000000000000000000000006d
:09474c0000000000000000000064
:20475500000000000000000000000000000000000000000000000000000000000000000044
:0a477500000000000000000000003a
:20477f0000000000000800000000000020000000000800000000000020000000000000804a
:09479f000000000000020000000f
:2047a8000000000000000000000000000000000000000000000000000000000000000000f1
:0a47c80000000000000000000000e7
:2047d20000000000000c00000000000030000000000c00000000000030000000000000c08f
:0947f200000000000003000000bb
:2047fb0000000000000000000000000000000000000000000000000000000000000000009e
:0a481b000000000000000000000093
:20482500000000000000000000000000000000000000000000000000000000000000000073
:094845000000000000000000006a
:20484e0000000000000000000000000000000000000000000000000000000000000000004a
:0a486e000000000000000000000040
:20487800000000000000000000000000000000000000000000000000000000000000000020
:0948980000000000000000000017
:2048a1000000000000000000000000000000000000000000000000000000000000000000f7
:0a48c10000000000000000000000ed
:2048cb000000000000080000000000002000000000080000000000002000000000000080fd
:0948eb00000000000002000000c2
:2048f4000000000000000000000000000000000000000000000000000000000000000000a4
:0a4914000000000000000000000099
:20491e00000000000000000000000000000d00000000000000000000098b000000f0da8c82
:09493e000000000000005180009f
:204947000000000000000000000000000000800000000000000000000090f000200d09e03a
:0a496700000000000000081a000024
:20497100000000000000000000000000000000000000000000041d02f009000000f0080012
:09499100280200000000000000f3
:20499a000000000000000002800000000000000000000000000101e95f021000302f0100bf
:0a49ba0000400000000000000000b3
:2049c4000000000000000000000000000008000000000000006032800000000000000004b5
:0949e400000000000000000000ca
:2049ed00000000000000000000000000000000000000000000052314c000000000000002ac
:0a4a0d00000000000000000000009f
:204a17000002000000000000200000000000000000000000000000149019000000000000a0
:094a3700000080000000000000f6
:204a40000000000000000000050000000000000000000000000000066d019000000000004d
:0a4a60000000080000000000010043
:204a6a00000000000000000000000000000000000000000000040580e0800000000000142f
:094a8a00380000000000000000eb
:204a93000000300000000000050000000000000000000000000100a5e138e000000000012e
:0a4ab30040000000000000080000b1
:204abd000000000000000000000000000008000000000000004436c00b000000003c0e0042
:094add0060000001082a0000003d
:204ae60000000000000000000000000000001000000000000001120408800000044381f841
:0a4b06000640003020de90000000a1
:204b100000000000000000000000000000000004000000000000005ec50c0000000076a438
:094b300028001000024e080000ec
:204b39000000000000000000000000000000050140000000000000017880b00000001577e1
:0a4b5900e0000500203e91800000fe
:204b6300000200000000000000042adcc0000000000000000080280100000000005a02c29f
:094b830020000000000000b00257
:204b8c00000000000000000000002a9feb0000004000000000000280de00a000002a500497
:0a4bac00e00001000000001d2020c1
:204bb6000000000000000000000000000d00800000000004000003c00d0e0000900f0824a5
:094bd6002800000000003000007e
:204bdf0000000000000000000000000000800008000000000000083c600000000020f70073
:0a4bff000040000000000800000064
:204c09000000000000000000000000000010a00000000000008003c2000d0000000503c2bf
:094c2900000000000000089008e2
:204c32000000000000000000000000000001c400000000000000083d40001000102af1e8f5
:0a4c52004680000000000100000091
:204c5c00000000000000000000000000010f00000000000000001680e009400000009704ce
:094c7c00000000000000b08000ff
:204c8500000000000000000000000000000001400000000000000a9401001800000029f2fc
:0a4ca5000000000000000000000005
:204caf00000200000000000000000000000000000000000000202a80df0b0000105a0000c5
:094ccf0000000403fc2b08004066
:204cd800000000000000000000000000000000000000000000000a95e80000000025a02050
:0a4cf80006000040abdee7000000fc
:204d020000000000000000000000000000000000000000000000001ef100004100070380b7
:094d220030000000000000000058
:204d2b000000300000000000000000000050000000000000000000047d9800000400576c08
:0a4d4b000640000000000000000018
:204d55000000000000000000000000000500000c0000001000003fc28700000000000b404a
:094d750000000000000000000035
:204d7e00c000000000000000000000000078000080000002000143f9ee0001c00000a1349a
:0a4d9e00e0000000000007801c0c7c
:204da800000000000000002000203fc1f00000240000000000000006b50d0004000a0fc0f2
:094dc80060001000000000000072
:204dd100400000000000000000024abddb00000140000000000000436d818001402af53d0f
:0a4df1004740050000000000001418
:204dfb000002000000000000002236eec01000000000000080000000000b0000000503c02d
:094e1b00410000033ced000a0017
:204e2400000000000000000000000bdf4901800040000000000000000000e000492af1e94d
:0a4e440047800181b7ec901e600466
:204e4e00000000000003e00000020c02001e000000000000000400afed19408000550380e2
:094e6e0064000003e82b7000024f
:204e77000000000000001e70400520c0c000f0000000000000001003db01d010002a556406
:0a4e9700064400201685c00000202c
:204ea100000000000000638000012ecd95800000000000000001101db01b180200f00800f2
:094ec100000000001420f10010b3
:204eca000000000000002e64000002f8fd9000000000000002000002de18a1c038af050068
:0a4eea0002800060015ca018008047
:204ef4000000010ff1bc200000241680908f0000000000000040154090900001000057805b
:094f140028000000000001b000bb
:204f1d0000000002b517ce3000020a940011b00000000000000e1295c050a004100807a41b
:0a4f3d00000010000000070900004a
:204f470000020103c06be800000033c7f10a00000000000040240080a0100001005a0280cb
:094f670000708003c01e319000af
:204f7000000000403853be3800001b176a8190000000000102030001ee00a080102a500014
:0a4f900000000800014dc0080000f9
:204f9a0008000008f021400000203beec90f000000000000000128010000000200a502c0e2
:094fba002d0000000000f00000d1
:204fc300000030404f704060000220ca6d0010020000000000020281ca7801400025a000c7
:0a4fe300602800000000000000003c
:204fed0000000005007403c303440282cb000000000000000000161cf0100001044032ec3a
:09500d002c000021402af0f00003
:2050160000000000f57300680037602dd9300000000000000000116bdc58a40008000d264e
:0a50360007004000a8060008000073
:2050400000000807fb2c038001000f1da908004400000000006214c2000a20810853003403
:095060003c001003bc1f00d0004d
:20506900400000189eda4068005000e3eb819001400000000001028d40001414050a370001
:0a508900004005123fc6d7010014d5
:205093000002000fff21420010262940c08000800000000100000044e080000000047254bc
:0950b300428000030cdc700000d7
:2050bc0000000012efb7606402100280d91000144000000000000003ee50000000000dfe3b
:0a50dc0002900100306fa8000004ec
:2050e6000000000ff068400000000000070000000000000000003d54910081000000000059
:095106000000000000000101d0ce
:20510f0000000000a05f2020000000000001e0c40000000000000029d98000080000000012
:0a512f00400000000000001c00809a
:2051390000000103f7a3400000000000008d01000000000400001c44e71f1400000000006c
:0951590038000000000010000005
:2051620000000002277a4030000000000070c0000000000000000137c880b80400000000ae
:0a5182004043000000000900008017
:20518c000000004f0000601000000000009000000000002000001a8dd00000000000928209
:0951ac00000000439c6c000008a7
:2051b50000000080f0702678040000000011c40000000001000001a86c79e00000080de41b
:0a51d500e28000c0bdf4800001007c
:2051df000002000b50c2c00020002bf69110080000000000000000000f10000200ff964ce5
:0951ff0030800043fec99100005c
:2052080000000040b5771c0001020afffc00800000000000000000000030a200182b59f315
:0a52280040500080ad4c901c0000c7
:2052320000000008157cc60114203fdfdb8001100000002800003d6ccd00201204ff0a4021
:095252002e0040000b4f08001172
:20525b0000003000a45ae02c00001ad44b900048000000000000002bd9800400042ef3201b
:0a527b00068000000007a1180000e3
:205285000000000570b822c000012bde9008200c0000000300003507eb081500040006c01b
:0952a50000003a039ddbd808006b
:2052ae00c0000342a736ce0054001afc58300800c0000000000003a35a000010140045b05d
:0a52ce00600003a0bdec9700000c87
:2052d8000000000ef0c003d201063ff6801ea0040000002000003d44f08b000000fa002e61
:0952f800600210000000d18000ea
:2053010040000040ef130000a0502ad65800e401400000010000002bd879c000000fa1b3fd
:0a53210047c045000000000f001413
:20532b0000020005f061c28000003fdcdd8000000000000080082a81001000420403d3c62b
:09534b0020000000000000a00099
:2053540000000000a53e807405121bbf4c31e00040000000000022a85e00c000200a73bd92
:0a537400c06801000000050f0004ee
:20537e0000000008396c000000003281e510a0000000000800001a750000000000003f80c4
:09539e002e800013d478000a00ef
:2053a70004000000813a5e0000010301fc00860800000001000205a64810000020004b7c4d
:0a53c700e398000002a5c0000000fa
:2053d10080000008b06822c0000021b4b00e18000000000000021a7d07800801002007c27d
:0953f10000000001e86a98800048
:2053fa0000000040855a1c00000001254100100000000001400005a448700000040181e1d8
:0a541a00400000802d5c1701000027
:205424000800000af06c0300000032a5e91a00000000000000021a6d070c1d41145f0400ac
:09544400410000014c09f00000d8
:20544d0004400000a53a407480080301fc00900000000000000005a45c808008004055b0fe
:0a546d0002a0001028d40000000087
:205477000038000f302c041010001286a00000000000000840011a7c07000000140202f622
:09549700345208033c18700000b7
:2054a00000004040d33b5e6202000211e802000000000001020005a64a780010040007f024
:0a54c000c000401037dce0000000df
:2054ca000000000477f7e300240415c0bb8021100000000800001a4d0b80001100050340b1
:0954ea0040004213281bf10a01e5
:2054f300000000008577940484010a9c7df8040800000001000015a65ad000081000a78034
:0a551300028000103006e82e0000b0
:20551d0000000180f0800407200022c0e08b00000000000000001a44000a00021020060263
:09553d0000400003c00af1f0086f
:20554600840001020f18007001010109dd78a00000000000020805a448000000040181e1c4
:0a556600c000300001549989000cc8
:20557000800000000000201001003c03a00920840000000000041a44001000000053000019
:09559000412000033c2f019008aa
:205599004000000000000e00025000156a00140340000000000005a65c00a000044a3781cf
:0a55b900e2000010b7d4800f005488
:2055c300000000000000400500003ec6a0981c00000000000000002d0d9e18000040972440
:0955e30024820010282a18d000cf
:2055ec000400000000003600001842f1e838800000000000000004000e50a400000003b0c1
:0a560c0000004000015611180004d0
:20561600002800000000c6c0000016c6d090a0000000000800252a800b00140000000024d0
:09563600007008022c0000a00025
:20563f00040040000000207800000292f910c4000000000000000295eaf8e00000000002b3
:0a565f000000001022cdc000000082
:2056690080000000000243a820000000001000000000000000003943e910004000000000cf
:0956890038000003fe6f08000068
:205692000000000000002001050000000001c0000000000000010214cef9800000000001b2
:0a56b20042c000202d65a300000097
:2056bc000c00000ffd26c01100023bcecf19a00000000020000031c2b00000000025024200
:0956dc0000300000000000900005
:2056e50004c00080a7527e600000006bfc788414000000010001030c59000000040267201c
:0a570500e0000000000000080000b2
:20570f0000020002004003d01000000000000000000000002000023ec91e8140845008244b
:09572f00400200020d5d58d0009b
:2057380000000040203b80060200000000018000000000000100020fec71d008004503b26c
:0a5758000208400030fec71b2800c5
:205762000000008c3f20000020203ecec000014000000008000000000710a10200470a409c
:095782000004000285ed00a00006
:20578b0000003100c1b7c0000000316bfc00000800000001000000000081a4080404276038
:0a57ab0000000004296c80090000d2
:2057b5000800010ff0e0400003042d8cfb80000c00000000000000000f80808c00f002c216
:0957d5000050200000000000005b
:2057de0004000042ef173e3800a403fadd92000080000002000000000059e010c0005320db
:0a57fe00e0281a000000000000007f
:205808008000080af7fb600021803fc0b01a00040000000000803ff6900a000c80ff7fdcf9
:09582800200010000000d0014036
:2058310000000108bfbe143805500abdde0080014000000000080bbd5a001201402b51b61b
:0a5851000040050000000800000000
:20585b00002e000000000300000007ccf00000000000000080003eaeed8080000000003ea2
:09587b0024820003c009b8f00208
:205884000400400000000600001033fadd0000004000000000000029e9718000400000031a
:0a58a400c6104100014ecf010020a4
:2058ae0000000004002823c000002601e00900000000000000002a25f01b0100000000144c
:0958ce0000000401283c00000068
:2058d70000000140005b1e00000141615a0000d00000000000080292fc01c00000000000d1
:0a58f70000000012bfdd8008000071
:20590100000000850000038000020940870c004000000000000117b6d7880001003c077c73
:0959210000020803fc6800d0003c
:20592a00000000005077803c00010069617990000000000000000013df38e50404a103a6a5
:0a594a00000000023bd4f50000004d
:20595400000000000000002800001403f70080000000000020040282e70b00800000b2c6eb
:0959740068020000000001a0001f
:20597d000000000000001e0100000168ce0184000000000074000014c00180d4000083ea25
:0a599d00e24010000000000e0000c0
:2059a7000002000000000740000003c0070000000000002000000001eb0d000000cf5a6e1d
:0959c7003d010000000090000009
:2059d0000000000000000e240004583de081c0000000000000010040e90010140868f7b363
:0a59f00043680000000000080000fa
:2059fa000000000470f003c800203ac2038900000000000000003cd5b08c20000001b6e4ae
:095a1a00400000000000019000b2
:205a23000000314aaf568c7d000103acee50000000000000000003dfce500400000a5b740f
:0a5a4300028000000000019a140028
:205a4d0000000800f0b80280000001408000000000000000000036c0c18f000c00c91b7c94
:095a6d000000000094ce58b000c6
:205a7600000000005f3e8604000001697d31e0000000000040010bdd58d81001800c69048e
:0a5a96000780500009b6b1000800b7
:205aa000000000000000002801000006b00800040000000000443dc2eb9e000400cffa4220
:095ac000207010031c2030a0002e
:205ac900400000000000000100d000075901f001400000000001039c78d1f001400ef335ca
:0a5ae900e040055031cda300001489
:205af30000022100a0bc0000000014000000000000000000400003c3f000000000031f14d4
:095b1300010000020f5b0080009c
:205b1c000000000c0530400000100141ec00000840000000000002bc4a58040040083df089
:0a5b3c00c0000800206f8001000087
:205b4600000000000000000000003c03e300008000000000000101400000000000000ae46d
:095b660000000000000009b0007d
:205b6f00040000000000000000020014d80000000000000000000014f80000c0000057b051
:0a5b8f00c000000000000109000042
:205b9900803c000000000000000203c2000c0000000000000000000007800000008b5f00ec
:095bb9003400000000007000003f
:205bc20000000000000000000004083ce000000000000001000000000050000000085bf9ee
:0a5be200c0000000000008000800e9
:205bec00080000000000000000000000000000000000000000003bc3b70d000000000f8e32
:095c0c000000000000000000008f
:205c150004c000000000000000800000007000c2000000000001039cee701002000053395d
:0a5c3500e000000000000000000085
:205c3f000002000000000000000000000f1900000000000000000142071e00000000001c97
:095c5f00300000030d7ef0d000be
:205c6800000000000000000000000000000080000000000000000014f880d0000000000040
:0a5c8800e040000020fc9001400005
:205c920000000000000000100000000000002000000000000000000000004000000000047e
:095cb200300000000000d10008e0
:205cbb000000300000000000000000000000040000000000000000000001a00000000002f2
:0a5cdb00638000000000000e01408d
:205ce5000000000000000000000000000000000000000000000022c1ad00000008ff063ec4
:095d0500280000011e5ff00000ff
:205d0e00800000000000000000000000000000000000000020010214cf000000044ef56b3d
:0a5d2e00c01000002166b800000c50
:205d38000000000000000000002011c0cf0e000400000000000000a5801ea00000ef0e8019
:095d580000000a03fddb3100002c
:205d61004000000000000000800521086c8010014000000004000002cd788400040e73ecb7
:0a5d810000000001ad6c900c00144e
:205d8b00000200000000000000002803d08000000000000080000000000080000000db00a0
:095dab002c0000000000d80000eb
:205db40000000000000000000000003de830000040000000400000000000000000080338b7
:0a5dd4000010000000000180000430
:025dde000000c3
:035de00062003f1f
:035de300720080cb
:025de6001100aa
:035de80082000036
:025deb000103b2
:085ded000000000000000000ae
:085df5000000000000000000a6
:085dfd0000000000000000009e
:085e0500000000000000000095
:0261ed000000b0
:0361ef00820080ab
:0261f2000103a7
:0861f4000000000000000000a3
:0861fc0000000000000000009b
:08620400000000000000000092
:08620c0000000000000000008a
:0265f4000000a5
:0265f600110191
:0365f8008200001e
:0265fb0001039a
:0865fd00000000000000000096
:0866050000000000000000008d
:08660d00000000000000000085
:0866150000000000000000007d
:0269fd00000098
:0369ff0082008093
:026a020001038e
:086a040000000000000000008a
:086a0c00000000000000000082
:086a140000000000000000007a
:086a1c00000000000000000072
:026e040000008c
:026e0600110277
:036e080082000005
:026e0b00010381
:086e0d0000000000000000007d
:086e1500000000000000000075
:086e1d0000000000000000006d
:086e2500000000000000000065
:02720d0000007f
:03720f008200807a
:02721200010376
:08721400000000000000000072
:08721c0000000000000000006a
:08722400000000000000000062
:08722c0000000000000000005a
:02761400000074
:0276160011035e
:03761800820000ed
:02761b00010369
:08761d00000000000000000065
:0876250000000000000000005d
:08762d00000000000000000055
:0876350000000000000000004d
:027a1d00000067
:037a1f0082008062
:027a220001035e
:087a240000000000000000005a
:087a2c00000000000000000052
:087a340000000000000000004a
:087a3c00000000000000000042
:027e240000005c
:017e26002239
:027e2700ea80ef
:027e2900010650
:00000001FF
